{
  "contractName": "FIR",
  "abi": [
    {
      "constant": true,
      "inputs": [
        {
          "name": "",
          "type": "uint256"
        },
        {
          "name": "",
          "type": "uint256"
        }
      ],
      "name": "IDWiseReports",
      "outputs": [
        {
          "name": "reportID",
          "type": "string"
        },
        {
          "name": "ID",
          "type": "uint256"
        },
        {
          "name": "name",
          "type": "string"
        },
        {
          "name": "phone",
          "type": "uint256"
        },
        {
          "name": "report",
          "type": "string"
        },
        {
          "name": "time",
          "type": "string"
        },
        {
          "name": "filedBy",
          "type": "address"
        }
      ],
      "payable": false,
      "stateMutability": "view",
      "type": "function"
    },
    {
      "constant": true,
      "inputs": [],
      "name": "nodeCount",
      "outputs": [
        {
          "name": "",
          "type": "uint256"
        }
      ],
      "payable": false,
      "stateMutability": "view",
      "type": "function"
    },
    {
      "constant": true,
      "inputs": [
        {
          "name": "",
          "type": "address"
        },
        {
          "name": "",
          "type": "uint256"
        }
      ],
      "name": "nodeWiseReports",
      "outputs": [
        {
          "name": "reportID",
          "type": "string"
        },
        {
          "name": "ID",
          "type": "uint256"
        },
        {
          "name": "name",
          "type": "string"
        },
        {
          "name": "phone",
          "type": "uint256"
        },
        {
          "name": "report",
          "type": "string"
        },
        {
          "name": "time",
          "type": "string"
        },
        {
          "name": "filedBy",
          "type": "address"
        }
      ],
      "payable": false,
      "stateMutability": "view",
      "type": "function"
    },
    {
      "inputs": [],
      "payable": false,
      "stateMutability": "nonpayable",
      "type": "constructor"
    },
    {
      "anonymous": false,
      "inputs": [
        {
          "indexed": false,
          "name": "reportID",
          "type": "string"
        }
      ],
      "name": "reportFiledEvent",
      "type": "event"
    },
    {
      "constant": false,
      "inputs": [
        {
          "name": "_ID",
          "type": "uint256"
        },
        {
          "name": "_name",
          "type": "string"
        },
        {
          "name": "_phone",
          "type": "uint256"
        },
        {
          "name": "_report",
          "type": "string"
        },
        {
          "name": "_time",
          "type": "string"
        }
      ],
      "name": "fileFIR",
      "outputs": [],
      "payable": false,
      "stateMutability": "nonpayable",
      "type": "function"
    },
    {
      "constant": true,
      "inputs": [
        {
          "name": "_half1ID",
          "type": "uint256"
        },
        {
          "name": "_half2ID",
          "type": "uint256"
        }
      ],
      "name": "getFIRByID",
      "outputs": [
        {
          "name": "",
          "type": "string"
        },
        {
          "name": "",
          "type": "uint256"
        },
        {
          "name": "",
          "type": "string"
        },
        {
          "name": "",
          "type": "uint256"
        },
        {
          "name": "",
          "type": "string"
        },
        {
          "name": "",
          "type": "string"
        },
        {
          "name": "",
          "type": "address"
        }
      ],
      "payable": false,
      "stateMutability": "view",
      "type": "function"
    }
  ],
  "bytecode": "0x608060405234801561001057600080fd5b506000600381905550611a93806100286000396000f30060806040526004361061006d576000357c0100000000000000000000000000000000000000000000000000000000900463ffffffff16806301680585146100725780636da49b83146102a7578063793c1ec4146102d257806399e58dc1146103db578063fefb29d814610610575b600080fd5b34801561007e57600080fd5b506100a7600480360381019080803590602001909291908035906020019092919050505061085b565b60405180806020018881526020018060200187815260200180602001806020018673ffffffffffffffffffffffffffffffffffffffff1673ffffffffffffffffffffffffffffffffffffffff16815260200185810385528c818151815260200191508051906020019080838360005b83811015610131578082015181840152602081019050610116565b50505050905090810190601f16801561015e5780820380516001836020036101000a031916815260200191505b5085810384528a818151815260200191508051906020019080838360005b8381101561019757808201518184015260208101905061017c565b50505050905090810190601f1680156101c45780820380516001836020036101000a031916815260200191505b50858103835288818151815260200191508051906020019080838360005b838110156101fd5780820151818401526020810190506101e2565b50505050905090810190601f16801561022a5780820380516001836020036101000a031916815260200191505b50858103825287818151815260200191508051906020019080838360005b83811015610263578082015181840152602081019050610248565b50505050905090810190601f1680156102905780820380516001836020036101000a031916815260200191505b509b50505050505050505050505060405180910390f35b3480156102b357600080fd5b506102bc610b2a565b6040518082815260200191505060405180910390f35b3480156102de57600080fd5b506103d960048036038101908080359060200190929190803590602001908201803590602001908080601f016020809104026020016040519081016040528093929190818152602001838380828437820191505050505050919291929080359060200190929190803590602001908201803590602001908080601f0160208091040260200160405190810160405280939291908181526020018383808284378201915050505050509192919290803590602001908201803590602001908080601f0160208091040260200160405190810160405280939291908181526020018383808284378201915050505050509192919290505050610b30565b005b3480156103e757600080fd5b506104106004803603810190808035906020019092919080359060200190929190505050610fe6565b60405180806020018881526020018060200187815260200180602001806020018673ffffffffffffffffffffffffffffffffffffffff1673ffffffffffffffffffffffffffffffffffffffff16815260200185810385528c818151815260200191508051906020019080838360005b8381101561049a57808201518184015260208101905061047f565b50505050905090810190601f1680156104c75780820380516001836020036101000a031916815260200191505b5085810384528a818151815260200191508051906020019080838360005b838110156105005780820151818401526020810190506104e5565b50505050905090810190601f16801561052d5780820380516001836020036101000a031916815260200191505b50858103835288818151815260200191508051906020019080838360005b8381101561056657808201518184015260208101905061054b565b50505050905090810190601f1680156105935780820380516001836020036101000a031916815260200191505b50858103825287818151815260200191508051906020019080838360005b838110156105cc5780820151818401526020810190506105b1565b50505050905090810190601f1680156105f95780820380516001836020036101000a031916815260200191505b509b50505050505050505050505060405180910390f35b34801561061c57600080fd5b5061065b600480360381019080803573ffffffffffffffffffffffffffffffffffffffff16906020019092919080359060200190929190505050611368565b60405180806020018881526020018060200187815260200180602001806020018673ffffffffffffffffffffffffffffffffffffffff1673ffffffffffffffffffffffffffffffffffffffff16815260200185810385528c818151815260200191508051906020019080838360005b838110156106e55780820151818401526020810190506106ca565b50505050905090810190601f1680156107125780820380516001836020036101000a031916815260200191505b5085810384528a818151815260200191508051906020019080838360005b8381101561074b578082015181840152602081019050610730565b50505050905090810190601f1680156107785780820380516001836020036101000a031916815260200191505b50858103835288818151815260200191508051906020019080838360005b838110156107b1578082015181840152602081019050610796565b50505050905090810190601f1680156107de5780820380516001836020036101000a031916815260200191505b50858103825287818151815260200191508051906020019080838360005b838110156108175780820151818401526020810190506107fc565b50505050905090810190601f1680156108445780820380516001836020036101000a031916815260200191505b509b50505050505050505050505060405180910390f35b600060205281600052604060002060205280600052604060002060009150915050806000018054600181600116156101000203166002900480601f0160208091040260200160405190810160405280929190818152602001828054600181600116156101000203166002900480156109145780601f106108e957610100808354040283529160200191610914565b820191906000526020600020905b8154815290600101906020018083116108f757829003601f168201915b505050505090806001015490806002018054600181600116156101000203166002900480601f0160208091040260200160405190810160405280929190818152602001828054600181600116156101000203166002900480156109b85780601f1061098d576101008083540402835291602001916109b8565b820191906000526020600020905b81548152906001019060200180831161099b57829003601f168201915b505050505090806003015490806004018054600181600116156101000203166002900480601f016020809104026020016040519081016040528092919081815260200182805460018160011615610100020316600290048015610a5c5780601f10610a3157610100808354040283529160200191610a5c565b820191906000526020600020905b815481529060010190602001808311610a3f57829003601f168201915b505050505090806005018054600181600116156101000203166002900480601f016020809104026020016040519081016040528092919081815260200182805460018160011615610100020316600290048015610afa5780601f10610acf57610100808354040283529160200191610afa565b820191906000526020600020905b815481529060010190602001808311610add57829003601f168201915b5050505050908060060160009054906101000a900473ffffffffffffffffffffffffffffffffffffffff16905087565b60035481565b6000806060610b3d61196e565b6000600160003373ffffffffffffffffffffffffffffffffffffffff1673ffffffffffffffffffffffffffffffffffffffff168152602001908152602001600020541415610bdc5760036000815460010191905081905550600354600160003373ffffffffffffffffffffffffffffffffffffffff1673ffffffffffffffffffffffffffffffffffffffff168152602001908152602001600020819055505b600160003373ffffffffffffffffffffffffffffffffffffffff1673ffffffffffffffffffffffffffffffffffffffff1681526020019081526020016000205493506001600260003373ffffffffffffffffffffffffffffffffffffffff1673ffffffffffffffffffffffffffffffffffffffff16815260200190815260200160002080549050019250610cbe610cb0610c7586611646565b6040805190810160405280600181526020017f2e0000000000000000000000000000000000000000000000000000000000000081525061179d565b610cb985611646565b61179d565b915060e0604051908101604052808381526020018a81526020018981526020018881526020018781526020018681526020013373ffffffffffffffffffffffffffffffffffffffff1681525090508060008086815260200190815260200160002060008581526020019081526020016000206000820151816000019080519060200190610d4c9291906119c2565b50602082015181600101556040820151816002019080519060200190610d739291906119c2565b50606082015181600301556080820151816004019080519060200190610d9a9291906119c2565b5060a0820151816005019080519060200190610db79291906119c2565b5060c08201518160060160006101000a81548173ffffffffffffffffffffffffffffffffffffffff021916908373ffffffffffffffffffffffffffffffffffffffff160217905550905050600260003373ffffffffffffffffffffffffffffffffffffffff1673ffffffffffffffffffffffffffffffffffffffff16815260200190815260200160002081908060018154018082558091505090600182039060005260206000209060070201600090919290919091506000820151816000019080519060200190610e899291906119c2565b50602082015181600101556040820151816002019080519060200190610eb09291906119c2565b50606082015181600301556080820151816004019080519060200190610ed79291906119c2565b5060a0820151816005019080519060200190610ef49291906119c2565b5060c08201518160060160006101000a81548173ffffffffffffffffffffffffffffffffffffffff021916908373ffffffffffffffffffffffffffffffffffffffff1602179055505050507f46e7c3c83b192b518a160d602661293e0a3990dd99426b51a6e42665e499dda4826040518080602001828103825283818151815260200191508051906020019080838360005b83811015610fa1578082015181840152602081019050610f86565b50505050905090810190601f168015610fce5780820380516001836020036101000a031916815260200191505b509250505060405180910390a1505050505050505050565b60606000606060006060806000610ffb61196e565b6000808b815260200190815260200160002060008a815260200190815260200160002060e06040519081016040529081600082018054600181600116156101000203166002900480601f0160208091040260200160405190810160405280929190818152602001828054600181600116156101000203166002900480156110c35780601f10611098576101008083540402835291602001916110c3565b820191906000526020600020905b8154815290600101906020018083116110a657829003601f168201915b5050505050815260200160018201548152602001600282018054600181600116156101000203166002900480601f01602080910402602001604051908101604052809291908181526020018280546001816001161561010002031660029004801561116f5780601f106111445761010080835404028352916020019161116f565b820191906000526020600020905b81548152906001019060200180831161115257829003601f168201915b5050505050815260200160038201548152602001600482018054600181600116156101000203166002900480601f01602080910402602001604051908101604052809291908181526020018280546001816001161561010002031660029004801561121b5780601f106111f05761010080835404028352916020019161121b565b820191906000526020600020905b8154815290600101906020018083116111fe57829003601f168201915b50505050508152602001600582018054600181600116156101000203166002900480601f0160208091040260200160405190810160405280929190818152602001828054600181600116156101000203166002900480156112bd5780601f10611292576101008083540402835291602001916112bd565b820191906000526020600020905b8154815290600101906020018083116112a057829003601f168201915b505050505081526020016006820160009054906101000a900473ffffffffffffffffffffffffffffffffffffffff1673ffffffffffffffffffffffffffffffffffffffff1673ffffffffffffffffffffffffffffffffffffffff16815250509050806000015181602001518260400151836060015184608001518560a001518660c0015186965084945082925081915097509750975097509750975097505092959891949750929550565b60026020528160005260406000208181548110151561138357fe5b906000526020600020906007020160009150915050806000018054600181600116156101000203166002900480601f0160208091040260200160405190810160405280929190818152602001828054600181600116156101000203166002900480156114305780601f1061140557610100808354040283529160200191611430565b820191906000526020600020905b81548152906001019060200180831161141357829003601f168201915b505050505090806001015490806002018054600181600116156101000203166002900480601f0160208091040260200160405190810160405280929190818152602001828054600181600116156101000203166002900480156114d45780601f106114a9576101008083540402835291602001916114d4565b820191906000526020600020905b8154815290600101906020018083116114b757829003601f168201915b505050505090806003015490806004018054600181600116156101000203166002900480601f0160208091040260200160405190810160405280929190818152602001828054600181600116156101000203166002900480156115785780601f1061154d57610100808354040283529160200191611578565b820191906000526020600020905b81548152906001019060200180831161155b57829003601f168201915b505050505090806005018054600181600116156101000203166002900480601f0160208091040260200160405190810160405280929190818152602001828054600181600116156101000203166002900480156116165780601f106115eb57610100808354040283529160200191611616565b820191906000526020600020905b8154815290600101906020018083116115f957829003601f168201915b5050505050908060060160009054906101000a900473ffffffffffffffffffffffffffffffffffffffff16905087565b60606000806060600080861415611694576040805190810160405280600181526020017f30000000000000000000000000000000000000000000000000000000000000008152509450611794565b8593505b6000841415156116be578280600101935050600a848115156116b657fe5b049350611698565b826040519080825280601f01601f1916602001820160405280156116f15781602001602082028038833980820191505090505b5091506001830390505b60008614151561179057600a8681151561171157fe5b066030017f01000000000000000000000000000000000000000000000000000000000000000282828060019003935081518110151561174c57fe5b9060200101907effffffffffffffffffffffffffffffffffffffffffffffffffffffffffffff1916908160001a905350600a8681151561178857fe5b0495506116fb565b8194505b50505050919050565b606080606080606060008088955087945084518651016040519080825280601f01601f1916602001820160405280156117e55781602001602082028038833980820191505090505b50935083925060009150600090505b85518110156118a757858181518110151561180b57fe5b9060200101517f010000000000000000000000000000000000000000000000000000000000000090047f010000000000000000000000000000000000000000000000000000000000000002838380600101945081518110151561186a57fe5b9060200101907effffffffffffffffffffffffffffffffffffffffffffffffffffffffffffff1916908160001a90535080806001019150506117f4565b600090505b845181101561195f5784818151811015156118c357fe5b9060200101517f010000000000000000000000000000000000000000000000000000000000000090047f010000000000000000000000000000000000000000000000000000000000000002838380600101945081518110151561192257fe5b9060200101907effffffffffffffffffffffffffffffffffffffffffffffffffffffffffffff1916908160001a90535080806001019150506118ac565b82965050505050505092915050565b60e060405190810160405280606081526020016000815260200160608152602001600081526020016060815260200160608152602001600073ffffffffffffffffffffffffffffffffffffffff1681525090565b828054600181600116156101000203166002900490600052602060002090601f016020900481019282601f10611a0357805160ff1916838001178555611a31565b82800160010185558215611a31579182015b82811115611a30578251825591602001919060010190611a15565b5b509050611a3e9190611a42565b5090565b611a6491905b80821115611a60576000816000905550600101611a48565b5090565b905600a165627a7a72305820c4410e142e521a0dfd777ca861e0a9e7d2559b29e535425db95f256fa730aab60029",
  "source": "pragma solidity ^0.4.2;\n\ncontract FIR {\n\n\tstruct Report {\n\t\tstring reportID;\n\t\tuint ID;\n\t\tstring name;\n\t\tuint phone;\n\t\tstring report;\n\t\tstring time;\n\t\taddress filedBy;\n\t}\n\n\tevent reportFiledEvent (\n\t\tstring reportID\n\t);\n\n\tmapping(uint  => mapping(uint => Report)) public IDWiseReports;\n\n\tmapping (address => uint) nodeID;\n\n\tmapping (address => Report[]) public nodeWiseReports;\n\n\tuint public nodeCount;\n\t\n\tconstructor() public {\n\t\tnodeCount = 0;\n\t}\n\n\tfunction fileFIR(uint _ID, string _name, uint _phone, string _report, string _time) public {\n\t\tif(nodeID[msg.sender]==0) {\n\t\t\t++nodeCount;\n\t\t\tnodeID[msg.sender] = nodeCount;\n\t\t}\n\t\tuint _half1ID = nodeID[msg.sender];\n\t\tuint _half2ID = nodeWiseReports[msg.sender].length + 1;\n\t\tstring memory _reportID = strConcat(strConcat(uint2str(_half1ID), \".\"), uint2str(_half2ID));\n\t\tReport memory _fir = Report(_reportID, _ID, _name, _phone, _report, _time, msg.sender);\n\t\tIDWiseReports[_half1ID][_half2ID] = _fir;\n\t\tnodeWiseReports[msg.sender].push(_fir);\n\t\temit reportFiledEvent(_reportID);\n\t}\n\n\tfunction getFIRByID(uint _half1ID, uint _half2ID) public view returns (string, uint, string, uint, string, string, address) {\n\t\tReport memory _report = IDWiseReports[_half1ID][_half2ID];\n\t\treturn (_report.reportID, _report.ID, _report.name, _report.phone, _report.report, _report.time, _report.filedBy);\n\t}\n\n\tfunction uint2str(uint _i) internal pure returns (string){\n\t    if (_i == 0) return \"0\";\n\t    uint j = _i;\n\t    uint length;\n\t    while (j != 0){\n\t        length++;\n\t        j /= 10;\n\t    }\n\t    bytes memory bstr = new bytes(length);\n\t    uint k = length - 1;\n\t    while (_i != 0){\n\t        bstr[k--] = byte(48 + _i % 10);\n\t        _i /= 10;\n\t    }\n\t    return string(bstr);\n\t}\n\n\tfunction strConcat(string _a, string _b) internal pure returns (string){\n\t    bytes memory _ba = bytes(_a);\n\t    bytes memory _bb = bytes(_b);\n\t    string memory ab = new string(_ba.length + _bb.length);\n\t    bytes memory bab = bytes(ab);\n\t    uint k = 0;\n\t    for (uint i = 0; i < _ba.length; i++) bab[k++] = _ba[i];\n\t    for (i = 0; i < _bb.length; i++) bab[k++] = _bb[i];\n\t    return string(bab);\n\t}\n\n\t/* function parseInt(string _a, uint _b) internal returns (uint) {\n\t\tbytes memory bresult = bytes(_a);\n\t\tuint mint = 0;\n\t\tfor (uint i = 0; i < bresult.length; i++) {\n\t\t\tmint = mint*10 + (uint(bresult[i]) - 48);\n\t\t}\n\t\twhile(_b!=0) {\n\t\t\tmint = mint*10 + _b%10;\n\t\t\t_b /= 10;\n\t\t}\n\t\treturn mint;\n\t} */\n}\n",
  "sourcePath": "/home/toor/Documents/FIR/contracts/FIR.sol",
  "compiler": {
    "name": "solc",
    "version": "0.4.24+commit.e67f0147.Emscripten.clang"
  },
  "schemaVersion": "2.0.1",
  "updatedAt": "2018-11-27T18:05:15.146Z"
}