{
  "contractName": "FIR",
  "abi": [
    {
      "constant": true,
      "inputs": [
        {
          "name": "",
          "type": "uint256"
        },
        {
          "name": "",
          "type": "uint256"
        }
      ],
      "name": "IDWiseReports",
      "outputs": [
        {
          "name": "reportID",
          "type": "string"
        },
        {
          "name": "ID",
          "type": "uint256"
        },
        {
          "name": "name",
          "type": "string"
        },
        {
          "name": "phone",
          "type": "uint256"
        },
        {
          "name": "report",
          "type": "string"
        },
        {
          "name": "time",
          "type": "string"
        },
        {
          "name": "filedBy",
          "type": "address"
        }
      ],
      "payable": false,
      "stateMutability": "view",
      "type": "function"
    },
    {
      "constant": true,
      "inputs": [],
      "name": "nodeCount",
      "outputs": [
        {
          "name": "",
          "type": "uint256"
        }
      ],
      "payable": false,
      "stateMutability": "view",
      "type": "function"
    },
    {
      "constant": true,
      "inputs": [
        {
          "name": "",
          "type": "address"
        },
        {
          "name": "",
          "type": "uint256"
        }
      ],
      "name": "nodeWiseReports",
      "outputs": [
        {
          "name": "reportID",
          "type": "string"
        },
        {
          "name": "ID",
          "type": "uint256"
        },
        {
          "name": "name",
          "type": "string"
        },
        {
          "name": "phone",
          "type": "uint256"
        },
        {
          "name": "report",
          "type": "string"
        },
        {
          "name": "time",
          "type": "string"
        },
        {
          "name": "filedBy",
          "type": "address"
        }
      ],
      "payable": false,
      "stateMutability": "view",
      "type": "function"
    },
    {
      "inputs": [],
      "payable": false,
      "stateMutability": "nonpayable",
      "type": "constructor"
    },
    {
      "anonymous": false,
      "inputs": [
        {
          "components": [
            {
              "name": "reportID",
              "type": "string"
            },
            {
              "name": "ID",
              "type": "uint256"
            },
            {
              "name": "name",
              "type": "string"
            },
            {
              "name": "phone",
              "type": "uint256"
            },
            {
              "name": "report",
              "type": "string"
            },
            {
              "name": "time",
              "type": "string"
            },
            {
              "name": "filedBy",
              "type": "address"
            }
          ],
          "indexed": false,
          "name": "report",
          "type": "tuple"
        }
      ],
      "name": "reportFoundEvent",
      "type": "event"
    },
    {
      "constant": true,
      "inputs": [
        {
          "name": "i",
          "type": "uint256"
        }
      ],
      "name": "uint2str",
      "outputs": [
        {
          "name": "",
          "type": "string"
        }
      ],
      "payable": false,
      "stateMutability": "pure",
      "type": "function"
    },
    {
      "constant": false,
      "inputs": [
        {
          "name": "_a",
          "type": "string"
        },
        {
          "name": "_b",
          "type": "string"
        }
      ],
      "name": "strConcat",
      "outputs": [
        {
          "name": "",
          "type": "string"
        }
      ],
      "payable": false,
      "stateMutability": "nonpayable",
      "type": "function"
    }
  ],
  "bytecode": "0x608060405234801561001057600080fd5b506000600381905550610ff2806100286000396000f30060806040526004361061006d576000357c0100000000000000000000000000000000000000000000000000000000900463ffffffff16806301680585146100725780636da49b83146102a7578063f76f950e146102d2578063fefb29d814610378578063ff74927b146105c3575b600080fd5b34801561007e57600080fd5b506100a760048036038101908080359060200190929190803590602001909291905050506106eb565b60405180806020018881526020018060200187815260200180602001806020018673ffffffffffffffffffffffffffffffffffffffff1673ffffffffffffffffffffffffffffffffffffffff16815260200185810385528c818151815260200191508051906020019080838360005b83811015610131578082015181840152602081019050610116565b50505050905090810190601f16801561015e5780820380516001836020036101000a031916815260200191505b5085810384528a818151815260200191508051906020019080838360005b8381101561019757808201518184015260208101905061017c565b50505050905090810190601f1680156101c45780820380516001836020036101000a031916815260200191505b50858103835288818151815260200191508051906020019080838360005b838110156101fd5780820151818401526020810190506101e2565b50505050905090810190601f16801561022a5780820380516001836020036101000a031916815260200191505b50858103825287818151815260200191508051906020019080838360005b83811015610263578082015181840152602081019050610248565b50505050905090810190601f1680156102905780820380516001836020036101000a031916815260200191505b509b50505050505050505050505060405180910390f35b3480156102b357600080fd5b506102bc6109ba565b6040518082815260200191505060405180910390f35b3480156102de57600080fd5b506102fd600480360381019080803590602001909291905050506109c0565b6040518080602001828103825283818151815260200191508051906020019080838360005b8381101561033d578082015181840152602081019050610322565b50505050905090810190601f16801561036a5780820380516001836020036101000a031916815260200191505b509250505060405180910390f35b34801561038457600080fd5b506103c3600480360381019080803573ffffffffffffffffffffffffffffffffffffffff16906020019092919080359060200190929190505050610b17565b60405180806020018881526020018060200187815260200180602001806020018673ffffffffffffffffffffffffffffffffffffffff1673ffffffffffffffffffffffffffffffffffffffff16815260200185810385528c818151815260200191508051906020019080838360005b8381101561044d578082015181840152602081019050610432565b50505050905090810190601f16801561047a5780820380516001836020036101000a031916815260200191505b5085810384528a818151815260200191508051906020019080838360005b838110156104b3578082015181840152602081019050610498565b50505050905090810190601f1680156104e05780820380516001836020036101000a031916815260200191505b50858103835288818151815260200191508051906020019080838360005b838110156105195780820151818401526020810190506104fe565b50505050905090810190601f1680156105465780820380516001836020036101000a031916815260200191505b50858103825287818151815260200191508051906020019080838360005b8381101561057f578082015181840152602081019050610564565b50505050905090810190601f1680156105ac5780820380516001836020036101000a031916815260200191505b509b50505050505050505050505060405180910390f35b3480156105cf57600080fd5b50610670600480360381019080803590602001908201803590602001908080601f0160208091040260200160405190810160405280939291908181526020018383808284378201915050505050509192919290803590602001908201803590602001908080601f0160208091040260200160405190810160405280939291908181526020018383808284378201915050505050509192919290505050610df5565b6040518080602001828103825283818151815260200191508051906020019080838360005b838110156106b0578082015181840152602081019050610695565b50505050905090810190601f1680156106dd5780820380516001836020036101000a031916815260200191505b509250505060405180910390f35b600160205281600052604060002060205280600052604060002060009150915050806000018054600181600116156101000203166002900480601f0160208091040260200160405190810160405280929190818152602001828054600181600116156101000203166002900480156107a45780601f10610779576101008083540402835291602001916107a4565b820191906000526020600020905b81548152906001019060200180831161078757829003601f168201915b505050505090806001015490806002018054600181600116156101000203166002900480601f0160208091040260200160405190810160405280929190818152602001828054600181600116156101000203166002900480156108485780601f1061081d57610100808354040283529160200191610848565b820191906000526020600020905b81548152906001019060200180831161082b57829003601f168201915b505050505090806003015490806004018054600181600116156101000203166002900480601f0160208091040260200160405190810160405280929190818152602001828054600181600116156101000203166002900480156108ec5780601f106108c1576101008083540402835291602001916108ec565b820191906000526020600020905b8154815290600101906020018083116108cf57829003601f168201915b505050505090806005018054600181600116156101000203166002900480601f01602080910402602001604051908101604052809291908181526020018280546001816001161561010002031660029004801561098a5780601f1061095f5761010080835404028352916020019161098a565b820191906000526020600020905b81548152906001019060200180831161096d57829003601f168201915b5050505050908060060160009054906101000a900473ffffffffffffffffffffffffffffffffffffffff16905087565b60035481565b60606000806060600080861415610a0e576040805190810160405280600181526020017f30000000000000000000000000000000000000000000000000000000000000008152509450610b0e565b8593505b600084141515610a38578280600101935050600a84811515610a3057fe5b049350610a12565b826040519080825280601f01601f191660200182016040528015610a6b5781602001602082028038833980820191505090505b5091506001830390505b600086141515610b0a57600a86811515610a8b57fe5b066030017f010000000000000000000000000000000000000000000000000000000000000002828280600190039350815181101515610ac657fe5b9060200101907effffffffffffffffffffffffffffffffffffffffffffffffffffffffffffff1916908160001a905350600a86811515610b0257fe5b049550610a75565b8194505b50505050919050565b600060205281600052604060002081815481101515610b3257fe5b906000526020600020906007020160009150915050806000018054600181600116156101000203166002900480601f016020809104026020016040519081016040528092919081815260200182805460018160011615610100020316600290048015610bdf5780601f10610bb457610100808354040283529160200191610bdf565b820191906000526020600020905b815481529060010190602001808311610bc257829003601f168201915b505050505090806001015490806002018054600181600116156101000203166002900480601f016020809104026020016040519081016040528092919081815260200182805460018160011615610100020316600290048015610c835780601f10610c5857610100808354040283529160200191610c83565b820191906000526020600020905b815481529060010190602001808311610c6657829003601f168201915b505050505090806003015490806004018054600181600116156101000203166002900480601f016020809104026020016040519081016040528092919081815260200182805460018160011615610100020316600290048015610d275780601f10610cfc57610100808354040283529160200191610d27565b820191906000526020600020905b815481529060010190602001808311610d0a57829003601f168201915b505050505090806005018054600181600116156101000203166002900480601f016020809104026020016040519081016040528092919081815260200182805460018160011615610100020316600290048015610dc55780601f10610d9a57610100808354040283529160200191610dc5565b820191906000526020600020905b815481529060010190602001808311610da857829003601f168201915b5050505050908060060160009054906101000a900473ffffffffffffffffffffffffffffffffffffffff16905087565b606080606080606060008088955087945084518651016040519080825280601f01601f191660200182016040528015610e3d5781602001602082028038833980820191505090505b50935083925060009150600090505b8551811015610eff578581815181101515610e6357fe5b9060200101517f010000000000000000000000000000000000000000000000000000000000000090047f0100000000000000000000000000000000000000000000000000000000000000028383806001019450815181101515610ec257fe5b9060200101907effffffffffffffffffffffffffffffffffffffffffffffffffffffffffffff1916908160001a9053508080600101915050610e4c565b600090505b8451811015610fb7578481815181101515610f1b57fe5b9060200101517f010000000000000000000000000000000000000000000000000000000000000090047f0100000000000000000000000000000000000000000000000000000000000000028383806001019450815181101515610f7a57fe5b9060200101907effffffffffffffffffffffffffffffffffffffffffffffffffffffffffffff1916908160001a9053508080600101915050610f04565b829650505050505050929150505600a165627a7a72305820af6f08bc2eeda8e55e10e9bdf6e526bd781737fd6f3f09c2ef1cbfd31f165e490029",
  "source": "pragma solidity ^0.4.2;\n\ncontract FIR {\n\n\tstruct Report {\n\t\tstring reportID;\n\t\tuint ID;\n\t\tstring name;\n\t\tuint phone;\n\t\tstring report;\n\t\tstring time;\n\t\taddress filedBy;\n\t}\n\n\tevent reportFoundEvent (\n\t\tReport report\n\t);\n\n\tmapping(address => Report[]) public nodeWiseReports;\n\n\tmapping(uint  => mapping(uint => Report)) public IDWiseReports;\n\n\tmapping (address => uint) nodeID;\n\n\tuint public nodeCount;\n\t\n\n\tconstructor() public {\n\t\tnodeCount = 0;\n\t}\n\n\t/* function fileFIR (string _date, uint _ID, string _name, uint _phone, string _report, string _time) public {\n\t\tif(nodeID[msg.sender]==0) {\n\t\t\t++nodeCount;\n\t\t\tnodeID[msg.sender] = nodeCount;\n\t\t}\n\t} */\n\n\tfunction uint2str(uint i) public pure returns (string){\n\t    if (i == 0) return \"0\";\n\t    uint j = i;\n\t    uint length;\n\t    while (j != 0){\n\t        length++;\n\t        j /= 10;\n\t    }\n\t    bytes memory bstr = new bytes(length);\n\t    uint k = length - 1;\n\t    while (i != 0){\n\t        bstr[k--] = byte(48 + i % 10);\n\t        i /= 10;\n\t    }\n\t    return string(bstr);\n\t}\n\n\tfunction strConcat(string _a, string _b) public returns (string){\n\t    bytes memory _ba = bytes(_a);\n\t    bytes memory _bb = bytes(_b);\n\t    string memory ab = new string(_ba.length + _bb.length);\n\t    bytes memory bab = bytes(ab);\n\t    uint k = 0;\n\t    for (uint i = 0; i < _ba.length; i++) bab[k++] = _ba[i];\n\t    for (i = 0; i < _bb.length; i++) bab[k++] = _bb[i];\n\t    return string(bab);\n\t}\n\n\t/* function parseInt(string _a, uint _b) internal returns (uint) {\n\t\tbytes memory bresult = bytes(_a);\n\t\tuint mint = 0;\n\t\tfor (uint i = 0; i < bresult.length; i++) {\n\t\t\tmint = mint*10 + (uint(bresult[i]) - 48);\n\t\t}\n\t\twhile(_b!=0) {\n\t\t\tmint = mint*10 + _b%10;\n\t\t\t_b /= 10;\n\t\t}\n\t\treturn mint;\n\t} */\n}\n",
  "sourcePath": "/home/toor/Documents/FIR/contracts/FIR.sol",
  "compiler": {
    "name": "solc",
    "version": "0.4.24+commit.e67f0147.Emscripten.clang"
  },
  "schemaVersion": "2.0.1",
  "updatedAt": "2018-11-25T17:12:52.305Z"
}